{
  "contractName": "Book",
  "abi": [
    {
      "inputs": [
        {
          "internalType": "string",
          "name": "_title",
          "type": "string"
        },
        {
          "internalType": "string",
          "name": "_author",
          "type": "string"
        },
        {
          "internalType": "uint256",
          "name": "_year",
          "type": "uint256"
        },
        {
          "internalType": "uint256",
          "name": "_price",
          "type": "uint256"
        }
      ],
      "stateMutability": "nonpayable",
      "type": "constructor"
    },
    {
      "inputs": [],
      "name": "isOwned",
      "outputs": [],
      "stateMutability": "nonpayable",
      "type": "function"
    },
    {
      "inputs": [
        {
          "internalType": "string",
          "name": "newT",
          "type": "string"
        }
      ],
      "name": "setTitle",
      "outputs": [],
      "stateMutability": "nonpayable",
      "type": "function"
    },
    {
      "inputs": [],
      "name": "getTitle",
      "outputs": [
        {
          "internalType": "string",
          "name": "",
          "type": "string"
        }
      ],
      "stateMutability": "view",
      "type": "function"
    },
    {
      "inputs": [
        {
          "internalType": "string",
          "name": "newA",
          "type": "string"
        }
      ],
      "name": "setAuthor",
      "outputs": [],
      "stateMutability": "nonpayable",
      "type": "function"
    },
    {
      "inputs": [],
      "name": "getAuthor",
      "outputs": [
        {
          "internalType": "string",
          "name": "",
          "type": "string"
        }
      ],
      "stateMutability": "view",
      "type": "function"
    },
    {
      "inputs": [
        {
          "internalType": "uint256",
          "name": "newY",
          "type": "uint256"
        }
      ],
      "name": "setYear",
      "outputs": [],
      "stateMutability": "nonpayable",
      "type": "function"
    },
    {
      "inputs": [],
      "name": "getYear",
      "outputs": [
        {
          "internalType": "uint256",
          "name": "",
          "type": "uint256"
        }
      ],
      "stateMutability": "view",
      "type": "function"
    },
    {
      "inputs": [
        {
          "internalType": "uint256",
          "name": "newP",
          "type": "uint256"
        }
      ],
      "name": "setPrice",
      "outputs": [],
      "stateMutability": "nonpayable",
      "type": "function"
    },
    {
      "inputs": [],
      "name": "getPrice",
      "outputs": [
        {
          "internalType": "uint256",
          "name": "",
          "type": "uint256"
        }
      ],
      "stateMutability": "view",
      "type": "function"
    },
    {
      "inputs": [],
      "name": "getSeller",
      "outputs": [
        {
          "internalType": "address",
          "name": "",
          "type": "address"
        }
      ],
      "stateMutability": "view",
      "type": "function"
    }
  ],
  "bytecode": "0x60806040523480156200001157600080fd5b5060405162000bbf38038062000bbf8339818101604052810190620000379190620001fb565b83600190805190602001906200004f929190620000c2565b50826002908051906020019062000068929190620000c2565b50816003819055508060048190555033600560006101000a81548173ffffffffffffffffffffffffffffffffffffffff021916908373ffffffffffffffffffffffffffffffffffffffff16021790555050505050620003ee565b828054620000d09062000340565b90600052602060002090601f016020900481019282620000f4576000855562000140565b82601f106200010f57805160ff191683800117855562000140565b8280016001018555821562000140579182015b828111156200013f57825182559160200191906001019062000122565b5b5090506200014f919062000153565b5090565b5b808211156200016e57600081600090555060010162000154565b5090565b6000620001896200018384620002cd565b62000299565b905082815260208101848484011115620001a257600080fd5b620001af8482856200030a565b509392505050565b600082601f830112620001c957600080fd5b8151620001db84826020860162000172565b91505092915050565b600081519050620001f581620003d4565b92915050565b600080600080608085870312156200021257600080fd5b600085015167ffffffffffffffff8111156200022d57600080fd5b6200023b87828801620001b7565b945050602085015167ffffffffffffffff8111156200025957600080fd5b6200026787828801620001b7565b93505060406200027a87828801620001e4565b92505060606200028d87828801620001e4565b91505092959194509250565b6000604051905081810181811067ffffffffffffffff82111715620002c357620002c2620003a5565b5b8060405250919050565b600067ffffffffffffffff821115620002eb57620002ea620003a5565b5b601f19601f8301169050602081019050919050565b6000819050919050565b60005b838110156200032a5780820151818401526020810190506200030d565b838111156200033a576000848401525b50505050565b600060028204905060018216806200035957607f821691505b6020821081141562000370576200036f62000376565b5b50919050565b7f4e487b7100000000000000000000000000000000000000000000000000000000600052602260045260246000fd5b7f4e487b7100000000000000000000000000000000000000000000000000000000600052604160045260246000fd5b620003df8162000300565b8114620003eb57600080fd5b50565b6107c180620003fe6000396000f3fe608060405234801561001057600080fd5b506004361061009e5760003560e01c8063a5faa12511610066578063a5faa1251461011f578063bdd85ffa1461013d578063dbd0e1b614610159578063fd08921b14610177578063ff3c1a8f146101955761009e565b80630e5e739c146100a35780633fe14e03146100ad57806372910be0146100c957806391b7f5ed146100e557806398d5fdca14610101575b600080fd5b6100ab6101b3565b005b6100c760048036038101906100c291906104bf565b6101f5565b005b6100e360048036038101906100de91906104bf565b61020f565b005b6100ff60048036038101906100fa9190610500565b610229565b005b610109610233565b60405161011691906105bd565b60405180910390f35b61012761023d565b604051610134919061059b565b60405180910390f35b61015760048036038101906101529190610500565b6102cf565b005b6101616102d9565b60405161016e9190610580565b60405180910390f35b61017f610303565b60405161018c91906105bd565b60405180910390f35b61019d61030d565b6040516101aa919061059b565b60405180910390f35b336000806101000a81548173ffffffffffffffffffffffffffffffffffffffff021916908373ffffffffffffffffffffffffffffffffffffffff160217905550565b806002908051906020019061020b92919061039f565b5050565b806001908051906020019061022592919061039f565b5050565b8060048190555050565b6000600454905090565b60606002805461024c906106d3565b80601f0160208091040260200160405190810160405280929190818152602001828054610278906106d3565b80156102c55780601f1061029a576101008083540402835291602001916102c5565b820191906000526020600020905b8154815290600101906020018083116102a857829003601f168201915b5050505050905090565b8060038190555050565b6000600560009054906101000a900473ffffffffffffffffffffffffffffffffffffffff16905090565b6000600354905090565b60606001805461031c906106d3565b80601f0160208091040260200160405190810160405280929190818152602001828054610348906106d3565b80156103955780601f1061036a57610100808354040283529160200191610395565b820191906000526020600020905b81548152906001019060200180831161037857829003601f168201915b5050505050905090565b8280546103ab906106d3565b90600052602060002090601f0160209004810192826103cd5760008555610414565b82601f106103e657805160ff1916838001178555610414565b82800160010185558215610414579182015b828111156104135782518255916020019190600101906103f8565b5b5090506104219190610425565b5090565b5b8082111561043e576000816000905550600101610426565b5090565b600061045561045084610609565b6105d8565b90508281526020810184848401111561046d57600080fd5b610478848285610691565b509392505050565b600082601f83011261049157600080fd5b81356104a1848260208601610442565b91505092915050565b6000813590506104b981610774565b92915050565b6000602082840312156104d157600080fd5b600082013567ffffffffffffffff8111156104eb57600080fd5b6104f784828501610480565b91505092915050565b60006020828403121561051257600080fd5b6000610520848285016104aa565b91505092915050565b61053281610655565b82525050565b600061054382610639565b61054d8185610644565b935061055d8185602086016106a0565b61056681610763565b840191505092915050565b61057a81610687565b82525050565b60006020820190506105956000830184610529565b92915050565b600060208201905081810360008301526105b58184610538565b905092915050565b60006020820190506105d26000830184610571565b92915050565b6000604051905081810181811067ffffffffffffffff821117156105ff576105fe610734565b5b8060405250919050565b600067ffffffffffffffff82111561062457610623610734565b5b601f19601f8301169050602081019050919050565b600081519050919050565b600082825260208201905092915050565b600061066082610667565b9050919050565b600073ffffffffffffffffffffffffffffffffffffffff82169050919050565b6000819050919050565b82818337600083830152505050565b60005b838110156106be5780820151818401526020810190506106a3565b838111156106cd576000848401525b50505050565b600060028204905060018216806106eb57607f821691505b602082108114156106ff576106fe610705565b5b50919050565b7f4e487b7100000000000000000000000000000000000000000000000000000000600052602260045260246000fd5b7f4e487b7100000000000000000000000000000000000000000000000000000000600052604160045260246000fd5b6000601f19601f8301169050919050565b61077d81610687565b811461078857600080fd5b5056fea26469706673582212207f36e150f76eed7a6cb0f30806dfa9d2d81e688b17a2559f36996f2544c5c4ed64736f6c63430008000033",
  "immutableReferences": {},
  "source": "pragma solidity ^0.8.0;\r\n\r\nimport './Owned.sol';\r\n \r\ncontract Book is Owned{\r\n\r\n    string private title;\r\n    string private author;\r\n    uint private year;\r\n    uint private price;\r\n    address seller;\r\n    address buyer;\r\n\r\n    constructor(string memory _title, string memory _author, uint _year, uint _price) {\r\n        title = _title;\r\n        author = _author;\r\n        year = _year; \r\n        price = _price;\r\n        seller = msg.sender;\r\n    }\r\n\r\n    function setTitle (string memory newT) public{\r\n        title = newT;\r\n    }\r\n\r\n    function getTitle() public view returns (string memory)  {\r\n        return title;\r\n    }\r\n\r\n     function setAuthor (string memory newA) public{\r\n        author = newA;\r\n    }\r\n\r\n    function getAuthor() public view returns (string memory)  {\r\n     return author;\r\n    }\r\n\r\n     function setYear (uint newY) public{\r\n        year = newY;\r\n    }\r\n\r\n    function getYear() public view returns (uint)  {\r\n        return year;\r\n    }\r\n\r\n    function setPrice (uint newP) public{\r\n        price = newP;\r\n    }\r\n\r\n    function getPrice() public view returns (uint)  {\r\n        return price;\r\n    }\r\n\r\n    function getSeller() public view returns (address)  {\r\n        return seller;\r\n    }\r\n}",
  "sourcePath": "C:/Users/m_mel/Desktop/BlockchainProject/contracts/Book.sol",
  "compiler": {
    "name": "solc",
    "version": "0.8.0+commit.c7dfd78e.Emscripten.clang"
  },
  "schemaVersion": "3.4.0",
  "updatedAt": "2021-05-06T08:12:03.983Z",
  "devdoc": {
    "kind": "dev",
    "methods": {},
    "version": 1
  },
  "userdoc": {
    "kind": "user",
    "methods": {},
    "version": 1
  }
}