{
  "contractName": "Book",
  "abi": [
    {
      "inputs": [
        {
          "internalType": "string",
          "name": "_title",
          "type": "string"
        },
        {
          "internalType": "string",
          "name": "_author",
          "type": "string"
        },
        {
          "internalType": "uint256",
          "name": "_year",
          "type": "uint256"
        },
        {
          "internalType": "uint256",
          "name": "_price",
          "type": "uint256"
        }
      ],
      "stateMutability": "nonpayable",
      "type": "constructor"
    },
    {
      "inputs": [],
      "name": "isOwned",
      "outputs": [],
      "stateMutability": "nonpayable",
      "type": "function"
    },
    {
      "inputs": [
        {
          "internalType": "string",
          "name": "newT",
          "type": "string"
        }
      ],
      "name": "setTitle",
      "outputs": [],
      "stateMutability": "nonpayable",
      "type": "function"
    },
    {
      "inputs": [],
      "name": "getTitle",
      "outputs": [
        {
          "internalType": "string",
          "name": "",
          "type": "string"
        }
      ],
      "stateMutability": "view",
      "type": "function"
    },
    {
      "inputs": [
        {
          "internalType": "string",
          "name": "newA",
          "type": "string"
        }
      ],
      "name": "setAuthor",
      "outputs": [],
      "stateMutability": "nonpayable",
      "type": "function"
    },
    {
      "inputs": [],
      "name": "getAuthor",
      "outputs": [
        {
          "internalType": "string",
          "name": "",
          "type": "string"
        }
      ],
      "stateMutability": "view",
      "type": "function"
    },
    {
      "inputs": [
        {
          "internalType": "uint256",
          "name": "newY",
          "type": "uint256"
        }
      ],
      "name": "setYear",
      "outputs": [],
      "stateMutability": "nonpayable",
      "type": "function"
    },
    {
      "inputs": [],
      "name": "getYear",
      "outputs": [
        {
          "internalType": "uint256",
          "name": "",
          "type": "uint256"
        }
      ],
      "stateMutability": "view",
      "type": "function"
    },
    {
      "inputs": [
        {
          "internalType": "uint256",
          "name": "newP",
          "type": "uint256"
        }
      ],
      "name": "setPrice",
      "outputs": [],
      "stateMutability": "nonpayable",
      "type": "function"
    },
    {
      "inputs": [],
      "name": "getPrice",
      "outputs": [
        {
          "internalType": "uint256",
          "name": "",
          "type": "uint256"
        }
      ],
      "stateMutability": "view",
      "type": "function"
    },
    {
      "inputs": [],
      "name": "getSeller",
      "outputs": [
        {
          "internalType": "address",
          "name": "",
          "type": "address"
        }
      ],
      "stateMutability": "view",
      "type": "function"
    }
  ],
  "bytecode": "0x608060405234801561001057600080fd5b5060405161072038038061072083398101604081905261002f916101b2565b8351610042906001906020870190610079565b508251610056906002906020860190610079565b506003919091556004555050600580546001600160a01b03191633179055610273565b82805461008590610222565b90600052602060002090601f0160209004810192826100a757600085556100ed565b82601f106100c057805160ff19168380011785556100ed565b828001600101855582156100ed579182015b828111156100ed5782518255916020019190600101906100d2565b506100f99291506100fd565b5090565b5b808211156100f957600081556001016100fe565b600082601f830112610122578081fd5b81516001600160401b038082111561013c5761013c61025d565b6040516020601f8401601f19168201810183811183821017156101615761016161025d565b6040528382528584018101871015610177578485fd5b8492505b83831015610198578583018101518284018201529182019161017b565b838311156101a857848185840101525b5095945050505050565b600080600080608085870312156101c7578384fd5b84516001600160401b03808211156101dd578586fd5b6101e988838901610112565b955060208701519150808211156101fe578485fd5b5061020b87828801610112565b604087015160609097015195989097509350505050565b60028104600182168061023657607f821691505b6020821081141561025757634e487b7160e01b600052602260045260246000fd5b50919050565b634e487b7160e01b600052604160045260246000fd5b61049e806102826000396000f3fe608060405234801561001057600080fd5b506004361061009e5760003560e01c8063a5faa12511610066578063a5faa12514610104578063bdd85ffa14610119578063dbd0e1b61461012c578063fd08921b14610141578063ff3c1a8f146101495761009e565b80630e5e739c146100a35780633fe14e03146100ad57806372910be0146100c057806391b7f5ed146100d357806398d5fdca146100e6575b600080fd5b6100ab610151565b005b6100ab6100bb3660046102ee565b610165565b6100ab6100ce3660046102ee565b61017c565b6100ab6100e136600461038f565b61018f565b6100ee610194565b6040516100fb919061040e565b60405180910390f35b61010c61019a565b6040516100fb91906103bb565b6100ab61012736600461038f565b61022c565b610134610231565b6040516100fb91906103a7565b6100ee610240565b61010c610246565b600080546001600160a01b03191633179055565b8051610178906002906020840190610255565b5050565b8051610178906001906020840190610255565b600455565b60045490565b6060600280546101a990610417565b80601f01602080910402602001604051908101604052809291908181526020018280546101d590610417565b80156102225780601f106101f757610100808354040283529160200191610222565b820191906000526020600020905b81548152906001019060200180831161020557829003601f168201915b5050505050905090565b600355565b6005546001600160a01b031690565b60035490565b6060600180546101a990610417565b82805461026190610417565b90600052602060002090601f01602090048101928261028357600085556102c9565b82601f1061029c57805160ff19168380011785556102c9565b828001600101855582156102c9579182015b828111156102c95782518255916020019190600101906102ae565b506102d59291506102d9565b5090565b5b808211156102d557600081556001016102da565b60006020808385031215610300578182fd5b823567ffffffffffffffff80821115610317578384fd5b818501915085601f83011261032a578384fd5b81358181111561033c5761033c610452565b604051601f8201601f191681018501838111828210171561035f5761035f610452565b6040528181528382018501881015610375578586fd5b818585018683013790810190930193909352509392505050565b6000602082840312156103a0578081fd5b5035919050565b6001600160a01b0391909116815260200190565b6000602080835283518082850152825b818110156103e7578581018301518582016040015282016103cb565b818111156103f85783604083870101525b50601f01601f1916929092016040019392505050565b90815260200190565b60028104600182168061042b57607f821691505b6020821081141561044c57634e487b7160e01b600052602260045260246000fd5b50919050565b634e487b7160e01b600052604160045260246000fdfea26469706673582212204939c9d9fd464817a5fa373ba4100f2e539efc0c8035db74407a767e59f2752a64736f6c63430008000033",
  "immutableReferences": {},
  "source": "pragma solidity ^0.8.0;\r\n\r\nimport './Owned.sol';\r\n \r\ncontract Book is Owned{\r\n\r\n    string private title;\r\n    string private author;\r\n    uint private year;\r\n    uint private price;\r\n    address seller;\r\n    address buyer;\r\n\r\n    constructor(string memory _title, string memory _author, uint _year, uint _price) {\r\n        title = _title;\r\n        author = _author;\r\n        year = _year; \r\n        price = _price;\r\n        seller = msg.sender;\r\n    }\r\n\r\n    function setTitle (string memory newT) public{\r\n        title = newT;\r\n    }\r\n\r\n    function getTitle() public view returns (string memory)  {\r\n        return title;\r\n    }\r\n\r\n     function setAuthor (string memory newA) public{\r\n        author = newA;\r\n    }\r\n\r\n    function getAuthor() public view returns (string memory)  {\r\n     return author;\r\n    }\r\n\r\n     function setYear (uint newY) public{\r\n        year = newY;\r\n    }\r\n\r\n    function getYear() public view returns (uint)  {\r\n        return year;\r\n    }\r\n\r\n    function setPrice (uint newP) public{\r\n        price = newP;\r\n    }\r\n\r\n    function getPrice() public view returns (uint)  {\r\n        return price;\r\n    }\r\n\r\n    function getSeller() public view returns (address)  {\r\n        return seller;\r\n    }\r\n}",
  "sourcePath": "D:\\Projects\\Blockchain\\booker-dapp\\contracts\\Book.sol",
  "compiler": {
    "name": "solc",
    "version": "0.8.0+commit.c7dfd78e.Emscripten.clang"
  },
  "schemaVersion": "3.4.0",
  "updatedAt": "2021-05-06T14:18:32.417Z",
  "devdoc": {
    "kind": "dev",
    "methods": {},
    "version": 1
  },
  "userdoc": {
    "kind": "user",
    "methods": {},
    "version": 1
  }
}