{
  "contractName": "Client",
  "abi": [
    {
      "inputs": [
        {
          "internalType": "string",
          "name": "_name",
          "type": "string"
        }
      ],
      "stateMutability": "nonpayable",
      "type": "constructor"
    },
    {
      "inputs": [
        {
          "internalType": "uint256",
          "name": "",
          "type": "uint256"
        }
      ],
      "name": "books",
      "outputs": [
        {
          "internalType": "contract Book",
          "name": "",
          "type": "address"
        }
      ],
      "stateMutability": "view",
      "type": "function"
    },
    {
      "inputs": [
        {
          "internalType": "string",
          "name": "newN",
          "type": "string"
        }
      ],
      "name": "setName",
      "outputs": [],
      "stateMutability": "nonpayable",
      "type": "function"
    },
    {
      "inputs": [],
      "name": "getName",
      "outputs": [
        {
          "internalType": "string",
          "name": "",
          "type": "string"
        }
      ],
      "stateMutability": "view",
      "type": "function"
    },
    {
      "inputs": [
        {
          "internalType": "contract Book",
          "name": "book",
          "type": "address"
        }
      ],
      "name": "addBook",
      "outputs": [],
      "stateMutability": "nonpayable",
      "type": "function"
    },
    {
      "inputs": [
        {
          "internalType": "uint256",
          "name": "_id",
          "type": "uint256"
        }
      ],
      "name": "publishBook",
      "outputs": [],
      "stateMutability": "nonpayable",
      "type": "function"
    }
  ],
  "bytecode": "0x608060405234801561001057600080fd5b506040516106a63803806106a683398101604081905261002f916100e2565b8051610042906001906020840190610049565b50506101f5565b828054610055906101a4565b90600052602060002090601f01602090048101928261007757600085556100bd565b82601f1061009057805160ff19168380011785556100bd565b828001600101855582156100bd579182015b828111156100bd5782518255916020019190600101906100a2565b506100c99291506100cd565b5090565b5b808211156100c957600081556001016100ce565b600060208083850312156100f4578182fd5b82516001600160401b038082111561010a578384fd5b818501915085601f83011261011d578384fd5b81518181111561012f5761012f6101df565b604051601f8201601f1916810185018381118282101715610152576101526101df565b6040528181528382018501881015610168578586fd5b8592505b81831015610189578383018501518184018601529184019161016c565b8183111561019957858583830101525b979650505050505050565b6002810460018216806101b857607f821691505b602082108114156101d957634e487b7160e01b600052602260045260246000fd5b50919050565b634e487b7160e01b600052604160045260246000fd5b6104a2806102046000396000f3fe608060405234801561001057600080fd5b50600436106100575760003560e01c80631484861e1461005c57806317d7de7c14610071578063687440461461008f578063c47f0027146100af578063e7ffc7c9146100c2575b600080fd5b61006f61006a3660046102cd565b6100d5565b005b610079610124565b60405161008691906103c8565b60405180910390f35b6100a261009d36600461039c565b6101b6565b60405161008691906103b4565b61006f6100bd3660046102fb565b6101e0565b61006f6100d036600461039c565b6101f7565b600080546001810182559080527f290decd9548b62a8d60345a988386fc84ba6bc95484008f6362f93160ef3e5630180546001600160a01b0319166001600160a01b0392909216919091179055565b6060600180546101339061041b565b80601f016020809104026020016040519081016040528092919081815260200182805461015f9061041b565b80156101ac5780601f10610181576101008083540402835291602001916101ac565b820191906000526020600020905b81548152906001019060200180831161018f57829003601f168201915b5050505050905090565b600081815481106101c657600080fd5b6000918252602090912001546001600160a01b0316905081565b80516101f3906001906020840190610234565b5050565b6000818154811061021857634e487b7160e01b600052603260045260246000fd5b600091825260209091200180546001600160a01b031916905550565b8280546102409061041b565b90600052602060002090601f01602090048101928261026257600085556102a8565b82601f1061027b57805160ff19168380011785556102a8565b828001600101855582156102a8579182015b828111156102a857825182559160200191906001019061028d565b506102b49291506102b8565b5090565b5b808211156102b457600081556001016102b9565b6000602082840312156102de578081fd5b81356001600160a01b03811681146102f4578182fd5b9392505050565b6000602080838503121561030d578182fd5b823567ffffffffffffffff80821115610324578384fd5b818501915085601f830112610337578384fd5b81358181111561034957610349610456565b604051601f8201601f191681018501838111828210171561036c5761036c610456565b6040528181528382018501881015610382578586fd5b818585018683013790810190930193909352509392505050565b6000602082840312156103ad578081fd5b5035919050565b6001600160a01b0391909116815260200190565b6000602080835283518082850152825b818110156103f4578581018301518582016040015282016103d8565b818111156104055783604083870101525b50601f01601f1916929092016040019392505050565b60028104600182168061042f57607f821691505b6020821081141561045057634e487b7160e01b600052602260045260246000fd5b50919050565b634e487b7160e01b600052604160045260246000fdfea2646970667358221220801f031f753d56ce7192dbcfd8dccd7c42dfa23be614dca16d4028e45c7aeb1864736f6c63430008000033",
  "immutableReferences": {},
  "source": "pragma solidity ^0.8.0;\r\n \r\nimport './Book.sol';\r\n \r\ncontract Client{\r\n    \r\n    Book[] public books;\r\n    string private name;\r\n    \r\n\r\n    constructor( string memory _name ) public{\r\n        name = _name;\r\n    }\r\n\r\n    // modifier onlyOwner (){\r\n    //     require(msg.sender == owner);\r\n    //     _;\r\n    // }\r\n\r\n    function setName(string memory newN) public{\r\n       name  = newN;\r\n    }\r\n\r\n    function getName() public view returns (string memory)  {\r\n        return name;\r\n    }\r\n\r\n    function addBook(Book book) public\r\n    {\r\n        books.push(book);\r\n    }\r\n\r\n    function publishBook(uint _id) public\r\n    {\r\n        delete(books[_id]);\r\n    }\r\n\r\n}",
  "sourcePath": "D:\\Projects\\Blockchain\\booker-dapp\\contracts\\Client.sol",
  "compiler": {
    "name": "solc",
    "version": "0.8.0+commit.c7dfd78e.Emscripten.clang"
  },
  "schemaVersion": "3.4.0",
  "updatedAt": "2021-05-06T14:18:32.419Z",
  "devdoc": {
    "kind": "dev",
    "methods": {},
    "version": 1
  },
  "userdoc": {
    "kind": "user",
    "methods": {},
    "version": 1
  }
}