{
  "contractName": "Client",
  "abi": [
    {
      "inputs": [
        {
          "internalType": "string",
          "name": "_name",
          "type": "string"
        }
      ],
      "stateMutability": "nonpayable",
      "type": "constructor"
    },
    {
      "inputs": [
        {
          "internalType": "uint256",
          "name": "",
          "type": "uint256"
        }
      ],
      "name": "books",
      "outputs": [
        {
          "internalType": "contract Book",
          "name": "",
          "type": "address"
        }
      ],
      "stateMutability": "view",
      "type": "function"
    },
    {
      "inputs": [
        {
          "internalType": "string",
          "name": "newN",
          "type": "string"
        }
      ],
      "name": "setName",
      "outputs": [],
      "stateMutability": "nonpayable",
      "type": "function"
    },
    {
      "inputs": [],
      "name": "getName",
      "outputs": [
        {
          "internalType": "string",
          "name": "",
          "type": "string"
        }
      ],
      "stateMutability": "view",
      "type": "function"
    },
    {
      "inputs": [
        {
          "internalType": "contract Book",
          "name": "book",
          "type": "address"
        }
      ],
      "name": "addBook",
      "outputs": [],
      "stateMutability": "nonpayable",
      "type": "function"
    },
    {
      "inputs": [
        {
          "internalType": "uint256",
          "name": "_id",
          "type": "uint256"
        }
      ],
      "name": "publishBook",
      "outputs": [],
      "stateMutability": "nonpayable",
      "type": "function"
    }
  ],
  "bytecode": "0x60806040523480156200001157600080fd5b5060405162000a3b38038062000a3b833981810160405281019062000037919062000179565b80600190805190602001906200004f92919062000057565b5050620002ef565b82805462000065906200025b565b90600052602060002090601f016020900481019282620000895760008555620000d5565b82601f10620000a457805160ff1916838001178555620000d5565b82800160010185558215620000d5579182015b82811115620000d4578251825591602001919060010190620000b7565b5b509050620000e49190620000e8565b5090565b5b8082111562000103576000816000905550600101620000e9565b5090565b60006200011e6200011884620001f2565b620001be565b9050828152602081018484840111156200013757600080fd5b6200014484828562000225565b509392505050565b600082601f8301126200015e57600080fd5b81516200017084826020860162000107565b91505092915050565b6000602082840312156200018c57600080fd5b600082015167ffffffffffffffff811115620001a757600080fd5b620001b5848285016200014c565b91505092915050565b6000604051905081810181811067ffffffffffffffff82111715620001e857620001e7620002c0565b5b8060405250919050565b600067ffffffffffffffff82111562000210576200020f620002c0565b5b601f19601f8301169050602081019050919050565b60005b838110156200024557808201518184015260208101905062000228565b8381111562000255576000848401525b50505050565b600060028204905060018216806200027457607f821691505b602082108114156200028b576200028a62000291565b5b50919050565b7f4e487b7100000000000000000000000000000000000000000000000000000000600052602260045260246000fd5b7f4e487b7100000000000000000000000000000000000000000000000000000000600052604160045260246000fd5b61073c80620002ff6000396000f3fe608060405234801561001057600080fd5b50600436106100575760003560e01c80631484861e1461005c57806317d7de7c146100785780636874404614610096578063c47f0027146100c6578063e7ffc7c9146100e2575b600080fd5b610076600480360381019061007191906103ee565b6100fe565b005b610080610164565b60405161008d91906104e4565b60405180910390f35b6100b060048036038101906100ab9190610458565b6101f6565b6040516100bd91906104c9565b60405180910390f35b6100e060048036038101906100db9190610417565b610235565b005b6100fc60048036038101906100f79190610458565b61024f565b005b6000819080600181540180825580915050600190039060005260206000200160009091909190916101000a81548173ffffffffffffffffffffffffffffffffffffffff021916908373ffffffffffffffffffffffffffffffffffffffff16021790555050565b60606001805461017390610637565b80601f016020809104026020016040519081016040528092919081815260200182805461019f90610637565b80156101ec5780601f106101c1576101008083540402835291602001916101ec565b820191906000526020600020905b8154815290600101906020018083116101cf57829003601f168201915b5050505050905090565b6000818154811061020657600080fd5b906000526020600020016000915054906101000a900473ffffffffffffffffffffffffffffffffffffffff1681565b806001908051906020019061024b9291906102b9565b5050565b60008181548110610289577f4e487b7100000000000000000000000000000000000000000000000000000000600052603260045260246000fd5b9060005260206000200160006101000a81549073ffffffffffffffffffffffffffffffffffffffff021916905550565b8280546102c590610637565b90600052602060002090601f0160209004810192826102e7576000855561032e565b82601f1061030057805160ff191683800117855561032e565b8280016001018555821561032e579182015b8281111561032d578251825591602001919060010190610312565b5b50905061033b919061033f565b5090565b5b80821115610358576000816000905550600101610340565b5090565b600061036f61036a84610537565b610506565b90508281526020810184848401111561038757600080fd5b6103928482856105f5565b509392505050565b6000813590506103a9816106d8565b92915050565b600082601f8301126103c057600080fd5b81356103d084826020860161035c565b91505092915050565b6000813590506103e8816106ef565b92915050565b60006020828403121561040057600080fd5b600061040e8482850161039a565b91505092915050565b60006020828403121561042957600080fd5b600082013567ffffffffffffffff81111561044357600080fd5b61044f848285016103af565b91505092915050565b60006020828403121561046a57600080fd5b6000610478848285016103d9565b91505092915050565b61048a816105d1565b82525050565b600061049b82610567565b6104a58185610572565b93506104b5818560208601610604565b6104be816106c7565b840191505092915050565b60006020820190506104de6000830184610481565b92915050565b600060208201905081810360008301526104fe8184610490565b905092915050565b6000604051905081810181811067ffffffffffffffff8211171561052d5761052c610698565b5b8060405250919050565b600067ffffffffffffffff82111561055257610551610698565b5b601f19601f8301169050602081019050919050565b600081519050919050565b600082825260208201905092915050565b600061058e826105a7565b9050919050565b60006105a082610583565b9050919050565b600073ffffffffffffffffffffffffffffffffffffffff82169050919050565b6000819050919050565b60006105dc826105e3565b9050919050565b60006105ee826105a7565b9050919050565b82818337600083830152505050565b60005b83811015610622578082015181840152602081019050610607565b83811115610631576000848401525b50505050565b6000600282049050600182168061064f57607f821691505b6020821081141561066357610662610669565b5b50919050565b7f4e487b7100000000000000000000000000000000000000000000000000000000600052602260045260246000fd5b7f4e487b7100000000000000000000000000000000000000000000000000000000600052604160045260246000fd5b6000601f19601f8301169050919050565b6106e181610595565b81146106ec57600080fd5b50565b6106f8816105c7565b811461070357600080fd5b5056fea26469706673582212205197751b89de336085f4ce116bb225e3ee551ea1d78ccf0c13cb7af0f1ad69ad64736f6c63430008000033",
  "immutableReferences": {},
  "source": "pragma solidity ^0.8.0;\r\n \r\nimport './Book.sol';\r\n \r\ncontract Client{\r\n    \r\n    Book[] public books;\r\n    string private name;\r\n    \r\n\r\n    constructor( string memory _name ) public{\r\n        name = _name;\r\n    }\r\n\r\n    // modifier onlyOwner (){\r\n    //     require(msg.sender == owner);\r\n    //     _;\r\n    // }\r\n\r\n    function setName(string memory newN) public{\r\n       name  = newN;\r\n    }\r\n\r\n    function getName() public view returns (string memory)  {\r\n        return name;\r\n    }\r\n\r\n    function addBook(Book book) public\r\n    {\r\n        books.push(book);\r\n    }\r\n\r\n    function publishBook(uint _id) public\r\n    {\r\n        delete(books[_id]);\r\n    }\r\n\r\n}",
  "sourcePath": "C:/Users/m_mel/Desktop/BlockchainProject/contracts/Client.sol",
  "compiler": {
    "name": "solc",
    "version": "0.8.0+commit.c7dfd78e.Emscripten.clang"
  },
  "schemaVersion": "3.4.0",
  "updatedAt": "2021-05-06T08:11:54.739Z",
  "devdoc": {
    "kind": "dev",
    "methods": {},
    "version": 1
  },
  "userdoc": {
    "kind": "user",
    "methods": {},
    "version": 1
  }
}