{
  "contractName": "MyLibrary",
  "abi": [
    {
      "inputs": [],
      "stateMutability": "nonpayable",
      "type": "constructor"
    },
    {
      "anonymous": false,
      "inputs": [
        {
          "indexed": false,
          "internalType": "address",
          "name": "customer",
          "type": "address"
        },
        {
          "indexed": false,
          "internalType": "string",
          "name": "bookId",
          "type": "string"
        }
      ],
      "name": "BookBuyCompleted",
      "type": "event"
    },
    {
      "anonymous": false,
      "inputs": [
        {
          "indexed": false,
          "internalType": "address",
          "name": "customer",
          "type": "address"
        },
        {
          "indexed": false,
          "internalType": "string",
          "name": "bookId",
          "type": "string"
        }
      ],
      "name": "BookBuyFailed",
      "type": "event"
    },
    {
      "anonymous": false,
      "inputs": [
        {
          "indexed": false,
          "internalType": "string",
          "name": "bookId",
          "type": "string"
        }
      ],
      "name": "BookDeregistered",
      "type": "event"
    },
    {
      "anonymous": false,
      "inputs": [
        {
          "indexed": false,
          "internalType": "string",
          "name": "productId",
          "type": "string"
        }
      ],
      "name": "BookDeregistrationFaled",
      "type": "event"
    },
    {
      "anonymous": false,
      "inputs": [
        {
          "indexed": false,
          "internalType": "string",
          "name": "bookId",
          "type": "string"
        }
      ],
      "name": "BookRegistered",
      "type": "event"
    },
    {
      "anonymous": false,
      "inputs": [
        {
          "indexed": false,
          "internalType": "string",
          "name": "productId",
          "type": "string"
        }
      ],
      "name": "BookRegisteredFailed",
      "type": "event"
    },
    {
      "anonymous": false,
      "inputs": [
        {
          "indexed": false,
          "internalType": "address",
          "name": "customer",
          "type": "address"
        }
      ],
      "name": "CustomerRegistered",
      "type": "event"
    },
    {
      "anonymous": false,
      "inputs": [
        {
          "indexed": false,
          "internalType": "address",
          "name": "customer",
          "type": "address"
        }
      ],
      "name": "CustomerRegistrationFailed",
      "type": "event"
    },
    {
      "inputs": [
        {
          "internalType": "string",
          "name": "",
          "type": "string"
        }
      ],
      "name": "books",
      "outputs": [
        {
          "internalType": "string",
          "name": "id",
          "type": "string"
        },
        {
          "internalType": "string",
          "name": "name",
          "type": "string"
        },
        {
          "internalType": "string",
          "name": "author",
          "type": "string"
        },
        {
          "internalType": "uint256",
          "name": "price",
          "type": "uint256"
        },
        {
          "internalType": "uint256",
          "name": "default_amount",
          "type": "uint256"
        }
      ],
      "stateMutability": "view",
      "type": "function"
    },
    {
      "inputs": [
        {
          "internalType": "uint256",
          "name": "",
          "type": "uint256"
        }
      ],
      "name": "booksIds",
      "outputs": [
        {
          "internalType": "string",
          "name": "",
          "type": "string"
        }
      ],
      "stateMutability": "view",
      "type": "function"
    },
    {
      "inputs": [
        {
          "internalType": "address",
          "name": "",
          "type": "address"
        }
      ],
      "name": "customers",
      "outputs": [
        {
          "internalType": "address",
          "name": "adr",
          "type": "address"
        }
      ],
      "stateMutability": "view",
      "type": "function"
    },
    {
      "inputs": [],
      "name": "owner",
      "outputs": [
        {
          "internalType": "address",
          "name": "",
          "type": "address"
        }
      ],
      "stateMutability": "view",
      "type": "function"
    },
    {
      "inputs": [
        {
          "internalType": "address",
          "name": "new_owner",
          "type": "address"
        }
      ],
      "name": "transferOwnership",
      "outputs": [],
      "stateMutability": "nonpayable",
      "type": "function"
    },
    {
      "inputs": [
        {
          "internalType": "string",
          "name": "id",
          "type": "string"
        },
        {
          "internalType": "string",
          "name": "name",
          "type": "string"
        },
        {
          "internalType": "string",
          "name": "author",
          "type": "string"
        },
        {
          "internalType": "uint256",
          "name": "price",
          "type": "uint256"
        },
        {
          "internalType": "uint256",
          "name": "default_amount",
          "type": "uint256"
        }
      ],
      "name": "addBook",
      "outputs": [
        {
          "internalType": "bool",
          "name": "success",
          "type": "bool"
        }
      ],
      "stateMutability": "nonpayable",
      "type": "function"
    },
    {
      "inputs": [
        {
          "internalType": "string",
          "name": "id",
          "type": "string"
        }
      ],
      "name": "deleteBook",
      "outputs": [
        {
          "internalType": "bool",
          "name": "success",
          "type": "bool"
        }
      ],
      "stateMutability": "nonpayable",
      "type": "function"
    },
    {
      "inputs": [],
      "name": "getOwnedBooks",
      "outputs": [
        {
          "internalType": "bool",
          "name": "exists",
          "type": "bool"
        },
        {
          "internalType": "string[]",
          "name": "ownedBooks",
          "type": "string[]"
        }
      ],
      "stateMutability": "view",
      "type": "function"
    },
    {
      "inputs": [
        {
          "internalType": "string",
          "name": "id",
          "type": "string"
        }
      ],
      "name": "buyBook",
      "outputs": [
        {
          "internalType": "bool",
          "name": "success",
          "type": "bool"
        },
        {
          "internalType": "uint256",
          "name": "aft",
          "type": "uint256"
        },
        {
          "internalType": "uint256",
          "name": "before",
          "type": "uint256"
        },
        {
          "components": [
            {
              "internalType": "address",
              "name": "adr",
              "type": "address"
            },
            {
              "internalType": "string[]",
              "name": "ownedBooks",
              "type": "string[]"
            }
          ],
          "internalType": "struct MyLibrary.Customer",
          "name": "cust",
          "type": "tuple"
        }
      ],
      "stateMutability": "payable",
      "type": "function"
    },
    {
      "inputs": [
        {
          "internalType": "string",
          "name": "id",
          "type": "string"
        }
      ],
      "name": "getBook",
      "outputs": [
        {
          "internalType": "string",
          "name": "name",
          "type": "string"
        },
        {
          "internalType": "string",
          "name": "author",
          "type": "string"
        },
        {
          "internalType": "uint256",
          "name": "price",
          "type": "uint256"
        },
        {
          "internalType": "uint256",
          "name": "default_amount",
          "type": "uint256"
        }
      ],
      "stateMutability": "view",
      "type": "function"
    },
    {
      "inputs": [],
      "name": "getRandom",
      "outputs": [
        {
          "internalType": "string",
          "name": "",
          "type": "string"
        }
      ],
      "stateMutability": "pure",
      "type": "function"
    },
    {
      "inputs": [],
      "name": "getBooksCount",
      "outputs": [
        {
          "internalType": "uint256",
          "name": "count",
          "type": "uint256"
        }
      ],
      "stateMutability": "view",
      "type": "function"
    },
    {
      "inputs": [
        {
          "internalType": "string",
          "name": "a",
          "type": "string"
        },
        {
          "internalType": "string",
          "name": "b",
          "type": "string"
        }
      ],
      "name": "compareStrings",
      "outputs": [
        {
          "internalType": "bool",
          "name": "",
          "type": "bool"
        }
      ],
      "stateMutability": "pure",
      "type": "function"
    }
  ],
  "bytecode": "0x608060405234801561001057600080fd5b50600080546001600160a01b031990811633908117909116179055611b048061003a6000396000f3fe6080604052600436106100c25760003560e01c8063aacc5a171161007f578063c37a836111610059578063c37a836114610218578063dfd83d2a14610248578063f2fde38b1461026a578063f96375231461028c576100c2565b8063aacc5a17146101b6578063b66d5c91146101d8578063bed34bba146101f8576100c2565b806313da26ea146100c75780632b9dfe80146100f3578063336989ae146101245780637d2cd4bf146101515780638da5cb5b1461017e578063a6b888e814610193575b600080fd5b3480156100d357600080fd5b506100dc6102ac565b6040516100ea929190611889565b60405180910390f35b3480156100ff57600080fd5b5061011361010e366004611688565b6104a6565b6040516100ea95949392919061199a565b34801561013057600080fd5b5061014461013f3660046115f4565b610677565b6040516100ea919061182a565b34801561015d57600080fd5b5061017161016c366004611724565b610692565b6040516100ea919061187e565b34801561018a57600080fd5b50610144610837565b6101a66101a136600461161b565b610846565b6040516100ea94939291906118f3565b3480156101c257600080fd5b506101cb610bf7565b6040516100ea9190611987565b3480156101e457600080fd5b506101cb6101f33660046117ba565b610c15565b34801561020457600080fd5b506101716102133660046116c3565b610cc1565b34801561022457600080fd5b50610238610233366004611688565b610d1a565b6040516100ea94939291906119e8565b34801561025457600080fd5b5061025d610ecd565b6040516100ea9190611a21565b34801561027657600080fd5b5061028a6102853660046115f4565b610ed3565b005b34801561029857600080fd5b506101716102a7366004611688565b610f34565b336000908152600160205260408120546060906001600160a01b0316156103ba57336000908152600160208181526040808420830180548251818502810185019093528083529394909391928492919084015b828210156103ab57838290600052602060002001805461031e90611a7d565b80601f016020809104026020016040519081016040528092919081815260200182805461034a90611a7d565b80156103975780601f1061036c57610100808354040283529160200191610397565b820191906000526020600020905b81548152906001019060200180831161037a57829003601f168201915b5050505050815260200190600101906102ff565b505050509050915091506104a2565b3360009081526001602081815260408084209092018054835181840281018401909452808452909291839190859084015b8282101561049757838290600052602060002001805461040a90611a7d565b80601f016020809104026020016040519081016040528092919081815260200182805461043690611a7d565b80156104835780601f1061045857610100808354040283529160200191610483565b820191906000526020600020905b81548152906001019060200180831161046657829003601f168201915b5050505050815260200190600101906103eb565b505050509050915091505b9091565b80516020818301810180516002825292820191909301209152805481906104cc90611a7d565b80601f01602080910402602001604051908101604052809291908181526020018280546104f890611a7d565b80156105455780601f1061051a57610100808354040283529160200191610545565b820191906000526020600020905b81548152906001019060200180831161052857829003601f168201915b50505050509080600101805461055a90611a7d565b80601f016020809104026020016040519081016040528092919081815260200182805461058690611a7d565b80156105d35780601f106105a8576101008083540402835291602001916105d3565b820191906000526020600020905b8154815290600101906020018083116105b657829003601f168201915b5050505050908060020180546105e890611a7d565b80601f016020809104026020016040519081016040528092919081815260200182805461061490611a7d565b80156106615780601f1061063657610100808354040283529160200191610661565b820191906000526020600020905b81548152906001019060200180831161064457829003601f168201915b5050505050908060030154908060040154905085565b6001602052600090815260409020546001600160a01b031681565b600080546001600160a01b031633146106aa57600080fd5b60006040518060a001604052808881526020018781526020018681526020018581526020018481525090506106de81611232565b156107f157806002886040516106f4919061180e565b9081526020016040518091039020600082015181600001908051906020019061071e92919061139c565b506020828101518051610737926001850192019061139c565b506040820151805161075391600284019160209091019061139c565b506060820151600380830191909155608090920151600490910155805460018101825560009190915287516107af917fc2575a0e9e593c00f959f8c92f12db2869c3395a3b0502d05e2516446f71f85b019060208a019061139c565b507f5deba97512d6e888de03aa19fcf4930512094d2f0fff544d12413485f38fc2a2876040516107df9190611987565b60405180910390a1600191505061082e565b7fa84a2ab48e9a5c0a805c086fcc0584023a4661f7dc92da1f77010895790cead1876040516108209190611987565b60405180910390a160009150505b95945050505050565b6000546001600160a01b031681565b6000806000610853611420565b6000600287876040516108679291906117fe565b9081526020016040518091039020600401541115610aa557600286866040516108919291906117fe565b9081526020016040518091039020600401549150600286866040516108b79291906117fe565b90815260405190819003602001902060040180549060006108d783611a5a565b9091555050336000908152600160205260409020546001600160a01b03161561090b5761090533878761123b565b50610938565b3360009081526001602081815260408320820180549283018155835290912061093691018787611438565b505b7f10947030525a055d911b58339faac20795a270867e12504064e1802e14ed2a6033878760405161096b9392919061183e565b60405180910390a16001600287876040516109879291906117fe565b9081526040805160209281900383018120600401543360009081526001808652848220848601865280546001600160a01b03168552908101805486518189028101890190975280875293968a96929594869482870194939284015b82821015610a8e578382906000526020600020018054610a0190611a7d565b80601f0160208091040260200160405190810160405280929190818152602001828054610a2d90611a7d565b8015610a7a5780601f10610a4f57610100808354040283529160200191610a7a565b820191906000526020600020905b815481529060010190602001808311610a5d57829003601f168201915b5050505050815260200190600101906109e2565b505050508152505090509350935093509350610bee565b7f7aa949cc1c856f3ca7467b2aa010e0f523909387532646bb4466395021248118338787604051610ad89392919061183e565b60405180910390a13360009081526001602081815260408084208151808301835281546001600160a01b03168152938101805483518186028101860190945280845286958695939490938593858201939091889084015b82821015610bdb578382906000526020600020018054610b4e90611a7d565b80601f0160208091040260200160405190810160405280929190818152602001828054610b7a90611a7d565b8015610bc75780601f10610b9c57610100808354040283529160200191610bc7565b820191906000526020600020905b815481529060010190602001808311610baa57829003601f168201915b505050505081526020019060010190610b2f565b5050505081525050905093509350935093505b92959194509250565b6040805180820190915260048152631d195cdd60e21b602082015290565b60038181548110610c2557600080fd5b906000526020600020016000915090508054610c4090611a7d565b80601f0160208091040260200160405190810160405280929190818152602001828054610c6c90611a7d565b8015610cb95780601f10610c8e57610100808354040283529160200191610cb9565b820191906000526020600020905b815481529060010190602001808311610c9c57829003601f168201915b505050505081565b600081604051602001610cd4919061180e565b6040516020818303038152906040528051906020012083604051602001610cfb919061180e565b6040516020818303038152906040528051906020012014905092915050565b606080600080600285604051610d30919061180e565b9081526020016040518091039020600101600286604051610d51919061180e565b9081526020016040518091039020600201600287604051610d72919061180e565b908152602001604051809103902060030154600288604051610d94919061180e565b908152602001604051809103902060040154838054610db290611a7d565b80601f0160208091040260200160405190810160405280929190818152602001828054610dde90611a7d565b8015610e2b5780601f10610e0057610100808354040283529160200191610e2b565b820191906000526020600020905b815481529060010190602001808311610e0e57829003601f168201915b50505050509350828054610e3e90611a7d565b80601f0160208091040260200160405190810160405280929190818152602001828054610e6a90611a7d565b8015610eb75780601f10610e8c57610100808354040283529160200191610eb7565b820191906000526020600020905b815481529060010190602001808311610e9a57829003601f168201915b5050505050925093509350935093509193509193565b60035490565b6000546001600160a01b03163314610eea57600080fd5b6001600160a01b03811615801590610f1057506000546001600160a01b03828116911614155b15610f3157600080546001600160a01b0319166001600160a01b0383161790555b50565b600080546001600160a01b03163314610f4c57600080fd5b6000600283604051610f5e919061180e565b90815260200160405180910390206040518060a0016040529081600082018054610f8790611a7d565b80601f0160208091040260200160405190810160405280929190818152602001828054610fb390611a7d565b80156110005780601f10610fd557610100808354040283529160200191611000565b820191906000526020600020905b815481529060010190602001808311610fe357829003601f168201915b5050505050815260200160018201805461101990611a7d565b80601f016020809104026020016040519081016040528092919081815260200182805461104590611a7d565b80156110925780601f1061106757610100808354040283529160200191611092565b820191906000526020600020905b81548152906001019060200180831161107557829003601f168201915b505050505081526020016002820180546110ab90611a7d565b80601f01602080910402602001604051908101604052809291908181526020018280546110d790611a7d565b80156111245780601f106110f957610100808354040283529160200191611124565b820191906000526020600020905b81548152906001019060200180831161110757829003601f168201915b50505050508152602001600382015481526020016004820154815250509050611151816000015184610cc1565b156111f057600283604051611166919061180e565b908152604051908190036020019020600061118182826114ac565b61118f6001830160006114ac565b61119d6002830160006114ac565b6003820160009055600482016000905550507fb8b06af68b06bfd06a74ee0a2f066e83511c89e917304ceca2a58891748da35a836040516111de9190611987565b60405180910390a1600191505061122d565b7f23a465e5078e5c2eb529fa2fa16a1dfe48663bd5a3b23f0f14ba20229cdbf24f8360405161121f9190611987565b60405180910390a160009150505b919050565b60600151151590565b60006001600160a01b0384161561135a576040805180820182526001600160a01b0386168152815160008082526020828101909452928201908361128f565b606081526020019060019003908161127a5790505b5090526001600160a01b038681166000908152600160208181526040909220845181546001600160a01b031916941693909317835583820151805194955085946112e1939285019291909101906114e8565b5050506001600160a01b03851660009081526001602081815260408320820180549283018155835290912061131891018585611438565b507f155e8619f4d23b96769599cb9af87da3e06a360082869c18578011da9a06e67085604051611348919061182a565b60405180910390a16001915050611395565b7f7c66b00fc05577d946381dc5b311ac0e6f93dbdc6f1b7b6a570ccdd7dbed6a0384604051611389919061182a565b60405180910390a15060005b9392505050565b8280546113a890611a7d565b90600052602060002090601f0160209004810192826113ca5760008555611410565b82601f106113e357805160ff1916838001178555611410565b82800160010185558215611410579182015b828111156114105782518255916020019190600101906113f5565b5061141c929150611541565b5090565b60408051808201909152600081526060602082015290565b82805461144490611a7d565b90600052602060002090601f0160209004810192826114665760008555611410565b82601f1061147f5782800160ff19823516178555611410565b82800160010185558215611410579182015b82811115611410578235825591602001919060010190611491565b5080546114b890611a7d565b6000825580601f106114ca5750610f31565b601f016020900490600052602060002090810190610f319190611541565b828054828255906000526020600020908101928215611535579160200282015b82811115611535578251805161152591849160209091019061139c565b5091602001919060010190611508565b5061141c929150611556565b5b8082111561141c5760008155600101611542565b8082111561141c57600061156a82826114ac565b50600101611556565b600082601f830112611583578081fd5b813567ffffffffffffffff8082111561159e5761159e611ab8565b604051601f8301601f1916810160200182811182821017156115c2576115c2611ab8565b6040528281528483016020018610156115d9578384fd5b82602086016020830137918201602001929092529392505050565b600060208284031215611605578081fd5b81356001600160a01b0381168114611395578182fd5b6000806020838503121561162d578081fd5b823567ffffffffffffffff80821115611644578283fd5b818501915085601f830112611657578283fd5b813581811115611665578384fd5b866020828501011115611676578384fd5b60209290920196919550909350505050565b600060208284031215611699578081fd5b813567ffffffffffffffff8111156116af578182fd5b6116bb84828501611573565b949350505050565b600080604083850312156116d5578182fd5b823567ffffffffffffffff808211156116ec578384fd5b6116f886838701611573565b9350602085013591508082111561170d578283fd5b5061171a85828601611573565b9150509250929050565b600080600080600060a0868803121561173b578081fd5b853567ffffffffffffffff80821115611752578283fd5b61175e89838a01611573565b96506020880135915080821115611773578283fd5b61177f89838a01611573565b95506040880135915080821115611794578283fd5b506117a188828901611573565b9598949750949560608101359550608001359392505050565b6000602082840312156117cb578081fd5b5035919050565b600081518084526117ea816020860160208601611a2a565b601f01601f19169290920160200192915050565b6000828483379101908152919050565b60008251611820818460208701611a2a565b9190910192915050565b6001600160a01b0391909116815260200190565b6001600160a01b03841681526040602082018190528101829052600082846060840137818301606090810191909152601f909201601f1916010192915050565b901515815260200190565b6000604082018415158352602060408185015281855180845260608601915060608382028701019350828701855b828110156118e557605f198887030184526118d38683516117d2565b955092840192908401906001016118b7565b509398975050505050505050565b60008515158252602085818401528460408401526080606084015260c0830160018060a01b03855116608085015281850151604060a086015281815180845260e08701915060e085820288010193508483019250855b818110156119775760df198886030183526119658585516117d2565b94509285019291850191600101611949565b50929a9950505050505050505050565b60006020825261139560208301846117d2565b600060a082526119ad60a08301886117d2565b82810360208401526119bf81886117d2565b905082810360408401526119d381876117d2565b60608401959095525050608001529392505050565b6000608082526119fb60808301876117d2565b8281036020840152611a0d81876117d2565b604084019590955250506060015292915050565b90815260200190565b60005b83811015611a45578181015183820152602001611a2d565b83811115611a54576000848401525b50505050565b600081611a7557634e487b7160e01b81526011600452602481fd5b506000190190565b600281046001821680611a9157607f821691505b60208210811415611ab257634e487b7160e01b600052602260045260246000fd5b50919050565b634e487b7160e01b600052604160045260246000fdfea2646970667358221220b543e69acc9e99d670b3419847de9a6ef1167f19f2d8dca390c99416eac6028964736f6c63430008000033",
  "immutableReferences": {},
  "source": "// SPDX-License-Identifier: MIT\r\npragma solidity ^0.8.0;\r\n\r\nimport \"./Owned.sol\";\r\n\r\ncontract MyLibrary is Owned {\r\n    mapping(address => Customer) public customers;\r\n    mapping(string => Book) public books;\r\n    string[] public booksIds;\r\n\r\n    struct Customer {\r\n        address adr;\r\n        string[] ownedBooks;\r\n    }\r\n\r\n    struct Book {\r\n        string id;\r\n        string name;\r\n        string author;\r\n        uint256 price;\r\n        uint256 default_amount;\r\n    }\r\n\r\n    event CustomerRegistered(address customer);\r\n    event CustomerRegistrationFailed(address customer);\r\n\r\n    event BookBuyCompleted(address customer, string bookId);\r\n    event BookBuyFailed(address customer, string bookId);\r\n\r\n    event BookRegistered(string bookId);\r\n    event BookDeregistered(string bookId);\r\n    event BookRegisteredFailed(string productId);\r\n    event BookDeregistrationFaled(string productId);\r\n\r\n    constructor() {\r\n        owner = msg.sender;\r\n    }\r\n\r\n    function addBook(\r\n        string memory id,\r\n        string memory name,\r\n        string memory author,\r\n        uint256 price,\r\n        uint256 default_amount\r\n    ) public onlyOwner returns (bool success) {\r\n        Book memory book = Book(id, name, author, price, default_amount);\r\n        if (checkProductValidity(book)) {\r\n            books[id] = book;\r\n            booksIds.push(id);\r\n            emit BookRegistered(id);\r\n            return true;\r\n        }\r\n        emit BookRegisteredFailed(id);\r\n        return false;\r\n    }\r\n\r\n    function deleteBook(string memory id)\r\n        public\r\n        onlyOwner\r\n        returns (bool success)\r\n    {\r\n        Book memory product = books[id];\r\n        if (compareStrings(product.id, id)) {\r\n            delete books[id];\r\n            emit BookDeregistered(id);\r\n            return true;\r\n        }\r\n        emit BookDeregistrationFaled(id);\r\n        return false;\r\n    }\r\n\r\n    function registerCustomer(address _address, string calldata bookId)\r\n        private\r\n        returns (bool success)\r\n    {\r\n        if (_address != address(0)) {\r\n            Customer memory customer =\r\n                Customer({adr: _address, ownedBooks: new string[](0)});\r\n            customers[_address] = customer;\r\n            customers[_address].ownedBooks.push(bookId);\r\n            emit CustomerRegistered(_address);\r\n            return true;\r\n        }\r\n        emit CustomerRegistrationFailed(_address);\r\n        return false;\r\n    }\r\n\r\n    function getOwnedBooks()\r\n        public\r\n        view\r\n        returns (bool exists, string[] memory ownedBooks)\r\n    {\r\n        if (customers[msg.sender].adr != address(0)) {\r\n            // exista deja\r\n            return (true, customers[msg.sender].ownedBooks);\r\n        }\r\n        return (false, customers[msg.sender].ownedBooks);\r\n    }\r\n\r\n    function buyBook(string calldata id)\r\n        public\r\n        payable\r\n        returns (\r\n            bool success,\r\n            uint256 aft,\r\n            uint256 before,\r\n            Customer memory cust\r\n        )\r\n    {\r\n        if (books[id].default_amount > 0) {\r\n            before = books[id].default_amount;\r\n            books[id].default_amount--;\r\n\r\n            if (customers[msg.sender].adr != address(0)) {\r\n                // exista deja\r\n                registerCustomer(msg.sender, id);\r\n            } else {\r\n                customers[msg.sender].ownedBooks.push(id);\r\n            }\r\n\r\n            emit BookBuyCompleted(msg.sender, id);\r\n            return (\r\n                true,\r\n                books[id].default_amount,\r\n                before,\r\n                customers[msg.sender]\r\n            );\r\n        }\r\n        emit BookBuyFailed(msg.sender, id);\r\n        return (false, 0, 0, customers[msg.sender]);\r\n    }\r\n\r\n    function getBook(string memory id)\r\n        public\r\n        view\r\n        returns (\r\n            string memory name,\r\n            string memory author,\r\n            uint256 price,\r\n            uint256 default_amount\r\n        )\r\n    {\r\n        return (\r\n            books[id].name,\r\n            books[id].author,\r\n            books[id].price,\r\n            books[id].default_amount\r\n        );\r\n    }\r\n\r\n    // function getCart()\r\n    //     public\r\n    //     returns (uint256[] memory product_ids, uint256 complete_sum)\r\n    // {\r\n    //     Customer customer = customers[msg.sender];\r\n    //     uint256 len = customer.cart.products.length;\r\n    //     uint256[] memory ids = new uint256[](len);\r\n    //     for (uint256 i = 0; i < len; i++) {\r\n    //         ids[i] = products[i].id;\r\n    //     }\r\n    //     return (ids, customer.cart.completeSum);\r\n    // }\r\n\r\n    modifier costs(address buyer, uint256 _amount) {\r\n        require(buyer.balance <= _amount, \"Not enough Ether provided.\");\r\n        _;\r\n    }\r\n\r\n    function getRandom() public pure returns (string memory) {\r\n        return \"test\";\r\n    }\r\n\r\n    function checkProductValidity(Book memory book)\r\n        private\r\n        pure\r\n        returns (bool valid)\r\n    {\r\n        return (book.price > 0);\r\n    }\r\n\r\n    function getBooksCount() public view returns (uint256 count) {\r\n        return booksIds.length;\r\n    }\r\n\r\n    function compareStrings(string memory a, string memory b)\r\n        public\r\n        pure\r\n        returns (bool)\r\n    {\r\n        return (keccak256(abi.encodePacked((a))) ==\r\n            keccak256(abi.encodePacked((b))));\r\n    }\r\n}\r\n",
  "sourcePath": "D:/Projects/Blockchain/booker-dapp/contracts/MyLibrary.sol",
  "compiler": {
    "name": "solc",
    "version": "0.8.0+commit.c7dfd78e.Emscripten.clang"
  },
  "schemaVersion": "3.4.0",
  "updatedAt": "2021-05-11T14:44:28.735Z",
  "devdoc": {
    "kind": "dev",
    "methods": {
      "transferOwnership(address)": {
        "params": {
          "new_owner": "Address of the new owner"
        }
      }
    },
    "version": 1
  },
  "userdoc": {
    "kind": "user",
    "methods": {
      "transferOwnership(address)": {
        "notice": "Changes the address of the store owner"
      }
    },
    "version": 1
  }
}