{
  "contractName": "MyLibrary",
  "abi": [
    {
      "inputs": [],
      "stateMutability": "nonpayable",
      "type": "constructor"
    },
    {
      "inputs": [
        {
          "internalType": "address",
          "name": "",
          "type": "address"
        }
      ],
      "name": "clients",
      "outputs": [
        {
          "internalType": "contract Client",
          "name": "",
          "type": "address"
        }
      ],
      "stateMutability": "view",
      "type": "function"
    },
    {
      "inputs": [
        {
          "internalType": "uint256",
          "name": "",
          "type": "uint256"
        }
      ],
      "name": "libraryBooks",
      "outputs": [
        {
          "internalType": "contract Book",
          "name": "",
          "type": "address"
        }
      ],
      "stateMutability": "view",
      "type": "function"
    },
    {
      "inputs": [
        {
          "internalType": "uint256",
          "name": "_id",
          "type": "uint256"
        },
        {
          "internalType": "string",
          "name": "_title",
          "type": "string"
        },
        {
          "internalType": "string",
          "name": "_author",
          "type": "string"
        },
        {
          "internalType": "uint256",
          "name": "_year",
          "type": "uint256"
        },
        {
          "internalType": "uint256",
          "name": "_price",
          "type": "uint256"
        }
      ],
      "name": "addBook",
      "outputs": [],
      "stateMutability": "nonpayable",
      "type": "function"
    },
    {
      "inputs": [
        {
          "internalType": "uint256",
          "name": "_id",
          "type": "uint256"
        },
        {
          "internalType": "string",
          "name": "_title",
          "type": "string"
        },
        {
          "internalType": "string",
          "name": "_author",
          "type": "string"
        },
        {
          "internalType": "uint256",
          "name": "_year",
          "type": "uint256"
        },
        {
          "internalType": "uint256",
          "name": "_price",
          "type": "uint256"
        }
      ],
      "name": "addClient",
      "outputs": [],
      "stateMutability": "nonpayable",
      "type": "function"
    },
    {
      "inputs": [
        {
          "internalType": "uint256",
          "name": "_id",
          "type": "uint256"
        },
        {
          "internalType": "address payable",
          "name": "buyer",
          "type": "address"
        }
      ],
      "name": "buyBook",
      "outputs": [],
      "stateMutability": "payable",
      "type": "function"
    }
  ],
  "bytecode": "0x6080604052600060025534801561001557600080fd5b50611a71806100256000396000f3fe608060405260043610620000505760003560e01c80635e6c551c146200005557806361eed2a914620000755780638be5df3714620000b9578063b98a9cda14620000e7578063f733719c146200012b575b600080fd5b6200007360048036038101906200006d919062000912565b62000159565b005b3480156200008257600080fd5b50620000a160048036038101906200009b919062000862565b620005c1565b604051620000b0919062000b1c565b60405180910390f35b348015620000c657600080fd5b50620000e56004803603810190620000df919062000953565b620005f4565b005b348015620000f457600080fd5b506200011360048036038101906200010d9190620008ba565b6200068b565b60405162000122919062000aff565b60405180910390f35b3480156200013857600080fd5b5062000157600480360381019062000151919062000953565b620006be565b005b806001600084815260200190815260200160002060009054906101000a900473ffffffffffffffffffffffffffffffffffffffff1673ffffffffffffffffffffffffffffffffffffffff166398d5fdca6040518163ffffffff1660e01b815260040160206040518083038186803b158015620001d457600080fd5b505afa158015620001e9573d6000803e3d6000fd5b505050506040513d601f19601f820116820180604052508101906200020f9190620008e6565b808273ffffffffffffffffffffffffffffffffffffffff163111156200026c576040517f08c379a0000000000000000000000000000000000000000000000000000000008152600401620002639062000b94565b60405180910390fd5b838060025410620002b4576040517f08c379a0000000000000000000000000000000000000000000000000000000008152600401620002ab9062000bb6565b60405180910390fd5b60006001600087815260200190815260200160002060009054906101000a900473ffffffffffffffffffffffffffffffffffffffff1673ffffffffffffffffffffffffffffffffffffffff1663dbd0e1b66040518163ffffffff1660e01b815260040160206040518083038186803b1580156200033057600080fd5b505afa15801562000345573d6000803e3d6000fd5b505050506040513d601f19601f820116820180604052508101906200036b91906200088e565b90508473ffffffffffffffffffffffffffffffffffffffff166108fc6001600089815260200190815260200160002060009054906101000a900473ffffffffffffffffffffffffffffffffffffffff1673ffffffffffffffffffffffffffffffffffffffff166398d5fdca6040518163ffffffff1660e01b815260040160206040518083038186803b1580156200040157600080fd5b505afa15801562000416573d6000803e3d6000fd5b505050506040513d601f19601f820116820180604052508101906200043c9190620008e6565b9081150290604051600060405180830381858888f1935050505015801562000468573d6000803e3d6000fd5b506000808673ffffffffffffffffffffffffffffffffffffffff1673ffffffffffffffffffffffffffffffffffffffff16815260200190815260200160002060009054906101000a900473ffffffffffffffffffffffffffffffffffffffff1673ffffffffffffffffffffffffffffffffffffffff16631484861e6001600089815260200190815260200160002060009054906101000a900473ffffffffffffffffffffffffffffffffffffffff166040518263ffffffff1660e01b815260040162000535919062000aff565b600060405180830381600087803b1580156200055057600080fd5b505af115801562000565573d6000803e3d6000fd5b505050506001600087815260200190815260200160002060006101000a81549073ffffffffffffffffffffffffffffffffffffffff021916905560026000815480929190620005b49062000d42565b9190505550505050505050565b60006020528060005260406000206000915054906101000a900473ffffffffffffffffffffffffffffffffffffffff1681565b8383838360405162000606906200076f565b62000615949392919062000b39565b604051809103906000f08015801562000632573d6000803e3d6000fd5b506001600087815260200190815260200160002060006101000a81548173ffffffffffffffffffffffffffffffffffffffff021916908373ffffffffffffffffffffffffffffffffffffffff1602179055505050505050565b60016020528060005260406000206000915054906101000a900473ffffffffffffffffffffffffffffffffffffffff1681565b83838383604051620006d0906200076f565b620006df949392919062000b39565b604051809103906000f080158015620006fc573d6000803e3d6000fd5b506001600087815260200190815260200160002060006101000a81548173ffffffffffffffffffffffffffffffffffffffff021916908373ffffffffffffffffffffffffffffffffffffffff16021790555060026000815480929190620007639062000d71565b91905055505050505050565b610bbf8062000e7d83390190565b6000620007946200078e8462000c0c565b62000bd8565b905082815260208101848484011115620007ad57600080fd5b620007ba84828562000cfd565b509392505050565b600081359050620007d38162000e2e565b92915050565b600081519050620007ea8162000e2e565b92915050565b600081359050620008018162000e48565b92915050565b600082601f8301126200081957600080fd5b81356200082b8482602086016200077d565b91505092915050565b600081359050620008458162000e62565b92915050565b6000815190506200085c8162000e62565b92915050565b6000602082840312156200087557600080fd5b60006200088584828501620007c2565b91505092915050565b600060208284031215620008a157600080fd5b6000620008b184828501620007d9565b91505092915050565b600060208284031215620008cd57600080fd5b6000620008dd8482850162000834565b91505092915050565b600060208284031215620008f957600080fd5b600062000909848285016200084b565b91505092915050565b600080604083850312156200092657600080fd5b6000620009368582860162000834565b92505060206200094985828601620007f0565b9150509250929050565b600080600080600060a086880312156200096c57600080fd5b60006200097c8882890162000834565b955050602086013567ffffffffffffffff8111156200099a57600080fd5b620009a88882890162000807565b945050604086013567ffffffffffffffff811115620009c657600080fd5b620009d48882890162000807565b9350506060620009e78882890162000834565b9250506080620009fa8882890162000834565b9150509295509295909350565b62000a128162000cad565b82525050565b62000a238162000cd5565b82525050565b600062000a368262000c3f565b62000a42818562000c4a565b935062000a5481856020860162000d0c565b62000a5f8162000e1d565b840191505092915050565b600062000a79601a8362000c4a565b91507f4e6f7420656e6f7567682045746865722070726f76696465642e0000000000006000830152602082019050919050565b600062000abb60188362000c4a565b91507f54686520626f6f6b20646f6573206e6f742065786973742e00000000000000006000830152602082019050919050565b62000af98162000ca3565b82525050565b600060208201905062000b16600083018462000a07565b92915050565b600060208201905062000b33600083018462000a18565b92915050565b6000608082019050818103600083015262000b55818762000a29565b9050818103602083015262000b6b818662000a29565b905062000b7c604083018562000aee565b62000b8b606083018462000aee565b95945050505050565b6000602082019050818103600083015262000baf8162000a6a565b9050919050565b6000602082019050818103600083015262000bd18162000aac565b9050919050565b6000604051905081810181811067ffffffffffffffff8211171562000c025762000c0162000dee565b5b8060405250919050565b600067ffffffffffffffff82111562000c2a5762000c2962000dee565b5b601f19601f8301169050602081019050919050565b600081519050919050565b600082825260208201905092915050565b600062000c688262000c83565b9050919050565b600062000c7c8262000c83565b9050919050565b600073ffffffffffffffffffffffffffffffffffffffff82169050919050565b6000819050919050565b600062000cba8262000cc1565b9050919050565b600062000cce8262000c83565b9050919050565b600062000ce28262000ce9565b9050919050565b600062000cf68262000c83565b9050919050565b82818337600083830152505050565b60005b8381101562000d2c57808201518184015260208101905062000d0f565b8381111562000d3c576000848401525b50505050565b600062000d4f8262000ca3565b9150600082141562000d665762000d6562000dbf565b5b600182039050919050565b600062000d7e8262000ca3565b91507fffffffffffffffffffffffffffffffffffffffffffffffffffffffffffffffff82141562000db45762000db362000dbf565b5b600182019050919050565b7f4e487b7100000000000000000000000000000000000000000000000000000000600052601160045260246000fd5b7f4e487b7100000000000000000000000000000000000000000000000000000000600052604160045260246000fd5b6000601f19601f8301169050919050565b62000e398162000c5b565b811462000e4557600080fd5b50565b62000e538162000c6f565b811462000e5f57600080fd5b50565b62000e6d8162000ca3565b811462000e7957600080fd5b5056fe60806040523480156200001157600080fd5b5060405162000bbf38038062000bbf8339818101604052810190620000379190620001fb565b83600190805190602001906200004f929190620000c2565b50826002908051906020019062000068929190620000c2565b50816003819055508060048190555033600560006101000a81548173ffffffffffffffffffffffffffffffffffffffff021916908373ffffffffffffffffffffffffffffffffffffffff16021790555050505050620003ee565b828054620000d09062000340565b90600052602060002090601f016020900481019282620000f4576000855562000140565b82601f106200010f57805160ff191683800117855562000140565b8280016001018555821562000140579182015b828111156200013f57825182559160200191906001019062000122565b5b5090506200014f919062000153565b5090565b5b808211156200016e57600081600090555060010162000154565b5090565b6000620001896200018384620002cd565b62000299565b905082815260208101848484011115620001a257600080fd5b620001af8482856200030a565b509392505050565b600082601f830112620001c957600080fd5b8151620001db84826020860162000172565b91505092915050565b600081519050620001f581620003d4565b92915050565b600080600080608085870312156200021257600080fd5b600085015167ffffffffffffffff8111156200022d57600080fd5b6200023b87828801620001b7565b945050602085015167ffffffffffffffff8111156200025957600080fd5b6200026787828801620001b7565b93505060406200027a87828801620001e4565b92505060606200028d87828801620001e4565b91505092959194509250565b6000604051905081810181811067ffffffffffffffff82111715620002c357620002c2620003a5565b5b8060405250919050565b600067ffffffffffffffff821115620002eb57620002ea620003a5565b5b601f19601f8301169050602081019050919050565b6000819050919050565b60005b838110156200032a5780820151818401526020810190506200030d565b838111156200033a576000848401525b50505050565b600060028204905060018216806200035957607f821691505b6020821081141562000370576200036f62000376565b5b50919050565b7f4e487b7100000000000000000000000000000000000000000000000000000000600052602260045260246000fd5b7f4e487b7100000000000000000000000000000000000000000000000000000000600052604160045260246000fd5b620003df8162000300565b8114620003eb57600080fd5b50565b6107c180620003fe6000396000f3fe608060405234801561001057600080fd5b506004361061009e5760003560e01c8063a5faa12511610066578063a5faa1251461011f578063bdd85ffa1461013d578063dbd0e1b614610159578063fd08921b14610177578063ff3c1a8f146101955761009e565b80630e5e739c146100a35780633fe14e03146100ad57806372910be0146100c957806391b7f5ed146100e557806398d5fdca14610101575b600080fd5b6100ab6101b3565b005b6100c760048036038101906100c291906104bf565b6101f5565b005b6100e360048036038101906100de91906104bf565b61020f565b005b6100ff60048036038101906100fa9190610500565b610229565b005b610109610233565b60405161011691906105bd565b60405180910390f35b61012761023d565b604051610134919061059b565b60405180910390f35b61015760048036038101906101529190610500565b6102cf565b005b6101616102d9565b60405161016e9190610580565b60405180910390f35b61017f610303565b60405161018c91906105bd565b60405180910390f35b61019d61030d565b6040516101aa919061059b565b60405180910390f35b336000806101000a81548173ffffffffffffffffffffffffffffffffffffffff021916908373ffffffffffffffffffffffffffffffffffffffff160217905550565b806002908051906020019061020b92919061039f565b5050565b806001908051906020019061022592919061039f565b5050565b8060048190555050565b6000600454905090565b60606002805461024c906106d3565b80601f0160208091040260200160405190810160405280929190818152602001828054610278906106d3565b80156102c55780601f1061029a576101008083540402835291602001916102c5565b820191906000526020600020905b8154815290600101906020018083116102a857829003601f168201915b5050505050905090565b8060038190555050565b6000600560009054906101000a900473ffffffffffffffffffffffffffffffffffffffff16905090565b6000600354905090565b60606001805461031c906106d3565b80601f0160208091040260200160405190810160405280929190818152602001828054610348906106d3565b80156103955780601f1061036a57610100808354040283529160200191610395565b820191906000526020600020905b81548152906001019060200180831161037857829003601f168201915b5050505050905090565b8280546103ab906106d3565b90600052602060002090601f0160209004810192826103cd5760008555610414565b82601f106103e657805160ff1916838001178555610414565b82800160010185558215610414579182015b828111156104135782518255916020019190600101906103f8565b5b5090506104219190610425565b5090565b5b8082111561043e576000816000905550600101610426565b5090565b600061045561045084610609565b6105d8565b90508281526020810184848401111561046d57600080fd5b610478848285610691565b509392505050565b600082601f83011261049157600080fd5b81356104a1848260208601610442565b91505092915050565b6000813590506104b981610774565b92915050565b6000602082840312156104d157600080fd5b600082013567ffffffffffffffff8111156104eb57600080fd5b6104f784828501610480565b91505092915050565b60006020828403121561051257600080fd5b6000610520848285016104aa565b91505092915050565b61053281610655565b82525050565b600061054382610639565b61054d8185610644565b935061055d8185602086016106a0565b61056681610763565b840191505092915050565b61057a81610687565b82525050565b60006020820190506105956000830184610529565b92915050565b600060208201905081810360008301526105b58184610538565b905092915050565b60006020820190506105d26000830184610571565b92915050565b6000604051905081810181811067ffffffffffffffff821117156105ff576105fe610734565b5b8060405250919050565b600067ffffffffffffffff82111561062457610623610734565b5b601f19601f8301169050602081019050919050565b600081519050919050565b600082825260208201905092915050565b600061066082610667565b9050919050565b600073ffffffffffffffffffffffffffffffffffffffff82169050919050565b6000819050919050565b82818337600083830152505050565b60005b838110156106be5780820151818401526020810190506106a3565b838111156106cd576000848401525b50505050565b600060028204905060018216806106eb57607f821691505b602082108114156106ff576106fe610705565b5b50919050565b7f4e487b7100000000000000000000000000000000000000000000000000000000600052602260045260246000fd5b7f4e487b7100000000000000000000000000000000000000000000000000000000600052604160045260246000fd5b6000601f19601f8301169050919050565b61077d81610687565b811461078857600080fd5b5056fea26469706673582212207f36e150f76eed7a6cb0f30806dfa9d2d81e688b17a2559f36996f2544c5c4ed64736f6c63430008000033a26469706673582212202091c79a421f5e3df5c6341320b8f67e14ac7a55b782103d017cd3ed2ac4b52764736f6c63430008000033",
  "immutableReferences": {},
  "source": "// pragma solidity >=0.4.21 <0.7.0;\npragma solidity ^0.8.0;\n\nimport './Book.sol';\nimport './Client.sol';\n\ncontract MyLibrary{\n\n    mapping(address => Client) public clients;\n    mapping(uint => Book) public libraryBooks;\n    uint nrBooks = 0;\n\n    // struct ClientBook{\n    //     Client client;\n    //     Book book[];\n    // }\n    // ClientBook[] public clientBooks;\n    // mapping(Client => mapping(uint => Book)) public clientBooks;\n\n    //uint[] public books;  \n\n    constructor() public {\n        // books.push(0);\n        // value = \"myValue\";\n        // clients[clients.length] = clientName;\n\n    }\n\n    function addBook(uint _id, string memory _title, string memory _author, uint _year, uint _price) public {\n\n        // libraryBooks[_id].push(new Book( _title, _author, _year, _price));\n        libraryBooks[_id] = new Book( _title, _author, _year, _price);\n        nrBooks ++;\n    }\n\n    function addClient(uint _id, string memory _title, string memory _author, uint _year, uint _price) public {\n\n        // libraryBooks[_id].push(new Book( _title, _author, _year, _price));\n        libraryBooks[_id] = new Book( _title, _author, _year, _price);\n    }\n\n\n    modifier exists(uint _id) {\n    require(nrBooks < _id , \"The book does not exist.\");\n    _;\n    }\n\n    modifier costs(address buyer, uint _amount) {\n    require(buyer.balance <= _amount, \"Not enough Ether provided.\");\n    _;\n    }\n\n    function buyBook(uint _id, address payable buyer) public payable costs(buyer, libraryBooks[_id].getPrice()) exists(_id) {\n        address seller = libraryBooks[_id].getSeller();\n        buyer.transfer(libraryBooks[_id].getPrice());\n        clients[buyer].addBook(libraryBooks[_id]);\n        delete(libraryBooks[_id]);\n        nrBooks --;\n    }\n\n    // function setName (string memory newName) public{\n    // MyContract.deployed().then((instance) => { app = instance } )ame = newName;\n    // }\n\n    // function getName() public view returns (string memory)  {\n    // return name;\n    // }\n\n    // function setAge (uint newAge) public{\n    //     age = newAge;\n    // }\n\n    // function getAge() public view returns (uint) {\n    //     return age;\n    // }\n\n    // function get() public view returns(string memory) {\n    //     return value;\n    // }\n\n    // function set(string memory _value) public {\n    //     value = _value;\n    // }\n}",
  "sourcePath": "C:/Users/m_mel/Desktop/BlockchainProject/contracts/MyLibrary.sol",
  "compiler": {
    "name": "solc",
    "version": "0.8.0+commit.c7dfd78e.Emscripten.clang"
  },
  "schemaVersion": "3.4.0",
  "updatedAt": "2021-05-06T08:11:39.351Z",
  "devdoc": {
    "kind": "dev",
    "methods": {},
    "version": 1
  },
  "userdoc": {
    "kind": "user",
    "methods": {},
    "version": 1
  }
}