{
  "contractName": "Owned",
  "abi": [
    {
      "inputs": [],
      "name": "isOwned",
      "outputs": [],
      "stateMutability": "nonpayable",
      "type": "function"
    }
  ],
  "bytecode": "0x6080604052348015600f57600080fd5b50607f8061001e6000396000f3fe6080604052348015600f57600080fd5b506004361060285760003560e01c80630e5e739c14602d575b600080fd5b60336035565b005b600080546001600160a01b0319163317905556fea2646970667358221220f162514fe80840f7152f3ed802f5619205a33b3bfb698ce98f4763aa847ab42f64736f6c63430008000033",
  "immutableReferences": {},
  "source": "  \r\npragma solidity ^0.8.0;\r\n\r\ncontract Owned {\r\n  // State variables\r\n  address owner;\r\n\r\n  //modifiers\r\n  modifier onlyOwner() {\r\n    require(msg.sender == owner);\r\n    _;\r\n  }\r\n\r\n  // constructor\r\n  function isOwned() public{\r\n    owner = msg.sender;\r\n  }\r\n\r\n\r\n}",
  "sourcePath": "D:\\Projects\\Blockchain\\booker-dapp\\contracts\\Owned.sol",
  "compiler": {
    "name": "solc",
    "version": "0.8.0+commit.c7dfd78e.Emscripten.clang"
  },
  "schemaVersion": "3.4.0",
  "updatedAt": "2021-05-06T14:18:32.427Z",
  "devdoc": {
    "kind": "dev",
    "methods": {},
    "version": 1
  },
  "userdoc": {
    "kind": "user",
    "methods": {},
    "version": 1
  }
}