{
  "contractName": "Owned",
  "abi": [
    {
      "inputs": [],
      "name": "isOwned",
      "outputs": [],
      "stateMutability": "nonpayable",
      "type": "function"
    }
  ],
  "bytecode": "0x6080604052348015600f57600080fd5b5060ad8061001e6000396000f3fe6080604052348015600f57600080fd5b506004361060285760003560e01c80630e5e739c14602d575b600080fd5b60336035565b005b336000806101000a81548173ffffffffffffffffffffffffffffffffffffffff021916908373ffffffffffffffffffffffffffffffffffffffff16021790555056fea264697066735822122043120c0bab3ed3ef499b9f97b39b51834627da40fd629fc9cfbf5e9b2c3bd8d264736f6c63430008000033",
  "immutableReferences": {},
  "source": "  \r\npragma solidity ^0.8.0;\r\n\r\ncontract Owned {\r\n  // State variables\r\n  address owner;\r\n\r\n  //modifiers\r\n  modifier onlyOwner() {\r\n    require(msg.sender == owner);\r\n    _;\r\n  }\r\n\r\n  // constructor\r\n  function isOwned() public{\r\n    owner = msg.sender;\r\n  }\r\n\r\n\r\n}",
  "sourcePath": "C:/Users/m_mel/Desktop/BlockchainProject/contracts/Owned.sol",
  "compiler": {
    "name": "solc",
    "version": "0.8.0+commit.c7dfd78e.Emscripten.clang"
  },
  "schemaVersion": "3.4.0",
  "updatedAt": "2021-05-06T08:12:28.228Z",
  "devdoc": {
    "kind": "dev",
    "methods": {},
    "version": 1
  },
  "userdoc": {
    "kind": "user",
    "methods": {},
    "version": 1
  }
}